{
  "_format": "hh-sol-artifact-1",
  "contractName": "NFTMarketplace",
  "sourceName": "contracts/NFTMarketplace.sol",
  "abi": [
    {
      "inputs": [
        {
          "internalType": "uint256",
          "name": "fee",
          "type": "uint256"
        }
      ],
      "stateMutability": "nonpayable",
      "type": "constructor"
    },
    {
      "anonymous": false,
      "inputs": [
        {
          "indexed": true,
          "internalType": "address",
          "name": "owner",
          "type": "address"
        },
        {
          "indexed": true,
          "internalType": "address",
          "name": "approved",
          "type": "address"
        },
        {
          "indexed": true,
          "internalType": "uint256",
          "name": "tokenId",
          "type": "uint256"
        }
      ],
      "name": "Approval",
      "type": "event"
    },
    {
      "anonymous": false,
      "inputs": [
        {
          "indexed": true,
          "internalType": "address",
          "name": "owner",
          "type": "address"
        },
        {
          "indexed": true,
          "internalType": "address",
          "name": "operator",
          "type": "address"
        },
        {
          "indexed": false,
          "internalType": "bool",
          "name": "approved",
          "type": "bool"
        }
      ],
      "name": "ApprovalForAll",
      "type": "event"
    },
    {
      "anonymous": false,
      "inputs": [
        {
          "indexed": true,
          "internalType": "uint256",
          "name": "tokenId",
          "type": "uint256"
        },
        {
          "indexed": false,
          "internalType": "address payable",
          "name": "seller",
          "type": "address"
        },
        {
          "indexed": false,
          "internalType": "address payable",
          "name": "owner",
          "type": "address"
        },
        {
          "indexed": false,
          "internalType": "uint256",
          "name": "price",
          "type": "uint256"
        },
        {
          "indexed": false,
          "internalType": "bool",
          "name": "sold",
          "type": "bool"
        }
      ],
      "name": "ItemCreated",
      "type": "event"
    },
    {
      "anonymous": false,
      "inputs": [
        {
          "indexed": true,
          "internalType": "address",
          "name": "from",
          "type": "address"
        },
        {
          "indexed": true,
          "internalType": "address",
          "name": "to",
          "type": "address"
        },
        {
          "indexed": true,
          "internalType": "uint256",
          "name": "tokenId",
          "type": "uint256"
        }
      ],
      "name": "Transfer",
      "type": "event"
    },
    {
      "inputs": [
        {
          "internalType": "address",
          "name": "to",
          "type": "address"
        },
        {
          "internalType": "uint256",
          "name": "tokenId",
          "type": "uint256"
        }
      ],
      "name": "approve",
      "outputs": [],
      "stateMutability": "nonpayable",
      "type": "function"
    },
    {
      "inputs": [
        {
          "internalType": "address",
          "name": "owner",
          "type": "address"
        }
      ],
      "name": "balanceOf",
      "outputs": [
        {
          "internalType": "uint256",
          "name": "",
          "type": "uint256"
        }
      ],
      "stateMutability": "view",
      "type": "function"
    },
    {
      "inputs": [
        {
          "internalType": "string",
          "name": "tokenURI",
          "type": "string"
        },
        {
          "internalType": "uint256",
          "name": "price",
          "type": "uint256"
        }
      ],
      "name": "createItem",
      "outputs": [
        {
          "internalType": "uint256",
          "name": "",
          "type": "uint256"
        }
      ],
      "stateMutability": "payable",
      "type": "function"
    },
    {
      "inputs": [
        {
          "internalType": "uint256",
          "name": "tokenId",
          "type": "uint256"
        }
      ],
      "name": "executeSale",
      "outputs": [],
      "stateMutability": "payable",
      "type": "function"
    },
    {
      "inputs": [],
      "name": "fetchItems",
      "outputs": [
        {
          "components": [
            {
              "internalType": "uint256",
              "name": "tokenId",
              "type": "uint256"
            },
            {
              "internalType": "address payable",
              "name": "seller",
              "type": "address"
            },
            {
              "internalType": "address payable",
              "name": "owner",
              "type": "address"
            },
            {
              "internalType": "uint256",
              "name": "price",
              "type": "uint256"
            },
            {
              "internalType": "bool",
              "name": "sold",
              "type": "bool"
            }
          ],
          "internalType": "struct NFTMarketplace.Item[]",
          "name": "",
          "type": "tuple[]"
        }
      ],
      "stateMutability": "view",
      "type": "function"
    },
    {
      "inputs": [],
      "name": "fetchListedItems",
      "outputs": [
        {
          "components": [
            {
              "internalType": "uint256",
              "name": "tokenId",
              "type": "uint256"
            },
            {
              "internalType": "address payable",
              "name": "seller",
              "type": "address"
            },
            {
              "internalType": "address payable",
              "name": "owner",
              "type": "address"
            },
            {
              "internalType": "uint256",
              "name": "price",
              "type": "uint256"
            },
            {
              "internalType": "bool",
              "name": "sold",
              "type": "bool"
            }
          ],
          "internalType": "struct NFTMarketplace.Item[]",
          "name": "",
          "type": "tuple[]"
        }
      ],
      "stateMutability": "view",
      "type": "function"
    },
    {
      "inputs": [],
      "name": "fetchMyItem",
      "outputs": [
        {
          "components": [
            {
              "internalType": "uint256",
              "name": "tokenId",
              "type": "uint256"
            },
            {
              "internalType": "address payable",
              "name": "seller",
              "type": "address"
            },
            {
              "internalType": "address payable",
              "name": "owner",
              "type": "address"
            },
            {
              "internalType": "uint256",
              "name": "price",
              "type": "uint256"
            },
            {
              "internalType": "bool",
              "name": "sold",
              "type": "bool"
            }
          ],
          "internalType": "struct NFTMarketplace.Item[]",
          "name": "",
          "type": "tuple[]"
        }
      ],
      "stateMutability": "view",
      "type": "function"
    },
    {
      "inputs": [
        {
          "internalType": "uint256",
          "name": "tokenId",
          "type": "uint256"
        }
      ],
      "name": "getApproved",
      "outputs": [
        {
          "internalType": "address",
          "name": "",
          "type": "address"
        }
      ],
      "stateMutability": "view",
      "type": "function"
    },
    {
      "inputs": [],
      "name": "getListingFee",
      "outputs": [
        {
          "internalType": "uint256",
          "name": "",
          "type": "uint256"
        }
      ],
      "stateMutability": "view",
      "type": "function"
    },
    {
      "inputs": [
        {
          "internalType": "address",
          "name": "owner",
          "type": "address"
        },
        {
          "internalType": "address",
          "name": "operator",
          "type": "address"
        }
      ],
      "name": "isApprovedForAll",
      "outputs": [
        {
          "internalType": "bool",
          "name": "",
          "type": "bool"
        }
      ],
      "stateMutability": "view",
      "type": "function"
    },
    {
      "inputs": [
        {
          "internalType": "uint256",
          "name": "tokenId",
          "type": "uint256"
        },
        {
          "internalType": "uint256",
          "name": "price",
          "type": "uint256"
        }
      ],
      "name": "listItems",
      "outputs": [],
      "stateMutability": "nonpayable",
      "type": "function"
    },
    {
      "inputs": [],
      "name": "listingFee",
      "outputs": [
        {
          "internalType": "uint256",
          "name": "",
          "type": "uint256"
        }
      ],
      "stateMutability": "view",
      "type": "function"
    },
    {
      "inputs": [],
      "name": "marketAdmin",
      "outputs": [
        {
          "internalType": "address payable",
          "name": "",
          "type": "address"
        }
      ],
      "stateMutability": "view",
      "type": "function"
    },
    {
      "inputs": [],
      "name": "name",
      "outputs": [
        {
          "internalType": "string",
          "name": "",
          "type": "string"
        }
      ],
      "stateMutability": "view",
      "type": "function"
    },
    {
      "inputs": [
        {
          "internalType": "uint256",
          "name": "tokenId",
          "type": "uint256"
        }
      ],
      "name": "ownerOf",
      "outputs": [
        {
          "internalType": "address",
          "name": "",
          "type": "address"
        }
      ],
      "stateMutability": "view",
      "type": "function"
    },
    {
      "inputs": [
        {
          "internalType": "uint256",
          "name": "tokenId",
          "type": "uint256"
        },
        {
          "internalType": "uint256",
          "name": "price",
          "type": "uint256"
        }
      ],
      "name": "resellToken",
      "outputs": [],
      "stateMutability": "payable",
      "type": "function"
    },
    {
      "inputs": [
        {
          "internalType": "address",
          "name": "from",
          "type": "address"
        },
        {
          "internalType": "address",
          "name": "to",
          "type": "address"
        },
        {
          "internalType": "uint256",
          "name": "tokenId",
          "type": "uint256"
        }
      ],
      "name": "safeTransferFrom",
      "outputs": [],
      "stateMutability": "nonpayable",
      "type": "function"
    },
    {
      "inputs": [
        {
          "internalType": "address",
          "name": "from",
          "type": "address"
        },
        {
          "internalType": "address",
          "name": "to",
          "type": "address"
        },
        {
          "internalType": "uint256",
          "name": "tokenId",
          "type": "uint256"
        },
        {
          "internalType": "bytes",
          "name": "data",
          "type": "bytes"
        }
      ],
      "name": "safeTransferFrom",
      "outputs": [],
      "stateMutability": "nonpayable",
      "type": "function"
    },
    {
      "inputs": [
        {
          "internalType": "address",
          "name": "operator",
          "type": "address"
        },
        {
          "internalType": "bool",
          "name": "approved",
          "type": "bool"
        }
      ],
      "name": "setApprovalForAll",
      "outputs": [],
      "stateMutability": "nonpayable",
      "type": "function"
    },
    {
      "inputs": [
        {
          "internalType": "bytes4",
          "name": "interfaceId",
          "type": "bytes4"
        }
      ],
      "name": "supportsInterface",
      "outputs": [
        {
          "internalType": "bool",
          "name": "",
          "type": "bool"
        }
      ],
      "stateMutability": "view",
      "type": "function"
    },
    {
      "inputs": [],
      "name": "symbol",
      "outputs": [
        {
          "internalType": "string",
          "name": "",
          "type": "string"
        }
      ],
      "stateMutability": "view",
      "type": "function"
    },
    {
      "inputs": [
        {
          "internalType": "uint256",
          "name": "tokenId",
          "type": "uint256"
        }
      ],
      "name": "tokenURI",
      "outputs": [
        {
          "internalType": "string",
          "name": "",
          "type": "string"
        }
      ],
      "stateMutability": "view",
      "type": "function"
    },
    {
      "inputs": [
        {
          "internalType": "address",
          "name": "from",
          "type": "address"
        },
        {
          "internalType": "address",
          "name": "to",
          "type": "address"
        },
        {
          "internalType": "uint256",
          "name": "tokenId",
          "type": "uint256"
        }
      ],
      "name": "transferFrom",
      "outputs": [],
      "stateMutability": "nonpayable",
      "type": "function"
    }
  ],
  "bytecode": "0x60c06040523480156200001157600080fd5b50604051620048853803806200488583398181016040528101906200003791906200014c565b6040518060400160405280600c81526020017f46617368696f6e546f6b656e00000000000000000000000000000000000000008152506040518060400160405280600481526020017f46415348000000000000000000000000000000000000000000000000000000008152508160009081620000b49190620003ee565b508060019081620000c69190620003ee565b5050503373ffffffffffffffffffffffffffffffffffffffff1660808173ffffffffffffffffffffffffffffffffffffffff16815250508060a0818152505050620004d5565b600080fd5b6000819050919050565b620001268162000111565b81146200013257600080fd5b50565b60008151905062000146816200011b565b92915050565b6000602082840312156200016557620001646200010c565b5b6000620001758482850162000135565b91505092915050565b600081519050919050565b7f4e487b7100000000000000000000000000000000000000000000000000000000600052604160045260246000fd5b7f4e487b7100000000000000000000000000000000000000000000000000000000600052602260045260246000fd5b600060028204905060018216806200020057607f821691505b602082108103620002165762000215620001b8565b5b50919050565b60008190508160005260206000209050919050565b60006020601f8301049050919050565b600082821b905092915050565b600060088302620002807fffffffffffffffffffffffffffffffffffffffffffffffffffffffffffffffff8262000241565b6200028c868362000241565b95508019841693508086168417925050509392505050565b6000819050919050565b6000620002cf620002c9620002c38462000111565b620002a4565b62000111565b9050919050565b6000819050919050565b620002eb83620002ae565b62000303620002fa82620002d6565b8484546200024e565b825550505050565b600090565b6200031a6200030b565b62000327818484620002e0565b505050565b5b818110156200034f576200034360008262000310565b6001810190506200032d565b5050565b601f8211156200039e5762000368816200021c565b620003738462000231565b8101602085101562000383578190505b6200039b620003928562000231565b8301826200032c565b50505b505050565b600082821c905092915050565b6000620003c360001984600802620003a3565b1980831691505092915050565b6000620003de8383620003b0565b9150826002028217905092915050565b620003f9826200017e565b67ffffffffffffffff81111562000415576200041462000189565b5b620004218254620001e7565b6200042e82828562000353565b600060209050601f83116001811462000466576000841562000451578287015190505b6200045d8582620003d0565b865550620004cd565b601f19841662000476866200021c565b60005b82811015620004a05784890151825560018201915060208501945060208101905062000479565b86831015620004c05784890151620004bc601f891682620003b0565b8355505b6001600288020188555050505b505050505050565b60805160a0516143676200051e60003960008181610e1101528181610eee015281816111e20152818161155d0152611a2501526000818161064d01526111a801526143676000f3fe6080604052600436106101405760003560e01c806370a08231116100b6578063b88d4fde1161006f578063b88d4fde14610454578063b8fe6abe1461047d578063c87b56dd146104a8578063cfd31e2c146104e5578063e219fc7514610510578063e985e9c51461052c57610140565b806370a082311461034c5780638c5517421461038957806395d89b41146103b95780639b1225c4146103e4578063a22cb46514610400578063ad78ba7b1461042957610140565b806323b872dd1161010857806323b872dd1461023e57806342842e0e14610267578063452edf5514610290578063525689ec146102bb5780636352211e146102e45780636a1b7ecc1461032157610140565b806301ffc9a7146101455780630592bdc81461018257806306fdde03146101ad578063081812fc146101d8578063095ea7b314610215575b600080fd5b34801561015157600080fd5b5061016c60048036038101906101679190612cb9565b610569565b6040516101799190612d01565b60405180910390f35b34801561018e57600080fd5b5061019761064b565b6040516101a49190612d5d565b60405180910390f35b3480156101b957600080fd5b506101c261066f565b6040516101cf9190612e08565b60405180910390f35b3480156101e457600080fd5b506101ff60048036038101906101fa9190612e60565b610701565b60405161020c9190612eae565b60405180910390f35b34801561022157600080fd5b5061023c60048036038101906102379190612ef5565b610747565b005b34801561024a57600080fd5b5061026560048036038101906102609190612f35565b61085e565b005b34801561027357600080fd5b5061028e60048036038101906102899190612f35565b6108be565b005b34801561029c57600080fd5b506102a56108de565b6040516102b291906130cc565b60405180910390f35b3480156102c757600080fd5b506102e260048036038101906102dd91906130ee565b610bca565b005b3480156102f057600080fd5b5061030b60048036038101906103069190612e60565b610d89565b6040516103189190612eae565b60405180910390f35b34801561032d57600080fd5b50610336610e0f565b604051610343919061313d565b60405180910390f35b34801561035857600080fd5b50610373600480360381019061036e9190613158565b610e33565b604051610380919061313d565b60405180910390f35b6103a3600480360381019061039e91906132ba565b610eea565b6040516103b0919061313d565b60405180910390f35b3480156103c557600080fd5b506103ce610f8e565b6040516103db9190612e08565b60405180910390f35b6103fe60048036038101906103f99190612e60565b611020565b005b34801561040c57600080fd5b5061042760048036038101906104229190613342565b611279565b005b34801561043557600080fd5b5061043e61128f565b60405161044b91906130cc565b60405180910390f35b34801561046057600080fd5b5061047b60048036038101906104769190613423565b6114f7565b005b34801561048957600080fd5b50610492611559565b60405161049f919061313d565b60405180910390f35b3480156104b457600080fd5b506104cf60048036038101906104ca9190612e60565b611581565b6040516104dc9190612e08565b60405180910390f35b3480156104f157600080fd5b506104fa611693565b60405161050791906130cc565b60405180910390f35b61052a600480360381019061052591906130ee565b61197f565b005b34801561053857600080fd5b50610553600480360381019061054e91906134a6565b611b92565b6040516105609190612d01565b60405180910390f35b60007f80ac58cd000000000000000000000000000000000000000000000000000000007bffffffffffffffffffffffffffffffffffffffffffffffffffffffff1916827bffffffffffffffffffffffffffffffffffffffffffffffffffffffff1916148061063457507f5b5e139f000000000000000000000000000000000000000000000000000000007bffffffffffffffffffffffffffffffffffffffffffffffffffffffff1916827bffffffffffffffffffffffffffffffffffffffffffffffffffffffff1916145b80610644575061064382611c26565b5b9050919050565b7f000000000000000000000000000000000000000000000000000000000000000081565b60606000805461067e90613515565b80601f01602080910402602001604051908101604052809291908181526020018280546106aa90613515565b80156106f75780601f106106cc576101008083540402835291602001916106f7565b820191906000526020600020905b8154815290600101906020018083116106da57829003601f168201915b5050505050905090565b600061070c82611c90565b6004600083815260200190815260200160002060009054906101000a900473ffffffffffffffffffffffffffffffffffffffff169050919050565b600061075282610d89565b90508073ffffffffffffffffffffffffffffffffffffffff168373ffffffffffffffffffffffffffffffffffffffff16036107c2576040517f08c379a00000000000000000000000000000000000000000000000000000000081526004016107b9906135b8565b60405180910390fd5b8073ffffffffffffffffffffffffffffffffffffffff166107e1611cdb565b73ffffffffffffffffffffffffffffffffffffffff161480610810575061080f8161080a611cdb565b611b92565b5b61084f576040517f08c379a00000000000000000000000000000000000000000000000000000000081526004016108469061364a565b60405180910390fd5b6108598383611ce3565b505050565b61086f610869611cdb565b82611d9c565b6108ae576040517f08c379a00000000000000000000000000000000000000000000000000000000081526004016108a5906136dc565b60405180910390fd5b6108b9838383611e31565b505050565b6108d9838383604051806020016040528060008152506114f7565b505050565b606060006108ec600761212a565b905060008060005b83811015610994573373ffffffffffffffffffffffffffffffffffffffff1660096000600184610924919061372b565b815260200190815260200160002060020160009054906101000a900473ffffffffffffffffffffffffffffffffffffffff1673ffffffffffffffffffffffffffffffffffffffff16036109815760018361097e919061372b565b92505b808061098c9061375f565b9150506108f4565b5060008267ffffffffffffffff8111156109b1576109b061318f565b5b6040519080825280602002602001820160405280156109ea57816020015b6109d7612bf0565b8152602001906001900390816109cf5790505b50905060005b84811015610bbf573373ffffffffffffffffffffffffffffffffffffffff1660096000600184610a20919061372b565b815260200190815260200160002060020160009054906101000a900473ffffffffffffffffffffffffffffffffffffffff1673ffffffffffffffffffffffffffffffffffffffff1603610bac576000600182610a7c919061372b565b90506000600960008381526020019081526020016000209050806040518060a0016040529081600082015481526020016001820160009054906101000a900473ffffffffffffffffffffffffffffffffffffffff1673ffffffffffffffffffffffffffffffffffffffff1673ffffffffffffffffffffffffffffffffffffffff1681526020016002820160009054906101000a900473ffffffffffffffffffffffffffffffffffffffff1673ffffffffffffffffffffffffffffffffffffffff1673ffffffffffffffffffffffffffffffffffffffff168152602001600382015481526020016004820160009054906101000a900460ff161515151581525050848681518110610b8f57610b8e6137a7565b5b6020026020010181905250600185610ba7919061372b565b945050505b8080610bb79061375f565b9150506109f0565b508094505050505090565b60008111610c0d576040517f08c379a0000000000000000000000000000000000000000000000000000000008152600401610c0490613822565b60405180910390fd5b6040518060a001604052808381526020013373ffffffffffffffffffffffffffffffffffffffff1681526020013073ffffffffffffffffffffffffffffffffffffffff16815260200182815260200160001515815250600960008481526020019081526020016000206000820151816000015560208201518160010160006101000a81548173ffffffffffffffffffffffffffffffffffffffff021916908373ffffffffffffffffffffffffffffffffffffffff16021790555060408201518160020160006101000a81548173ffffffffffffffffffffffffffffffffffffffff021916908373ffffffffffffffffffffffffffffffffffffffff1602179055506060820151816003015560808201518160040160006101000a81548160ff021916908315150217905550905050610d46333084611e31565b817fac9c6ba6615a42ba499e4fb8f4e81fca0a12708052230586867f82d2dbc6a3b13330846000604051610d7d9493929190613842565b60405180910390a25050565b600080610d9583612138565b9050600073ffffffffffffffffffffffffffffffffffffffff168173ffffffffffffffffffffffffffffffffffffffff1603610e06576040517f08c379a0000000000000000000000000000000000000000000000000000000008152600401610dfd906138d3565b60405180910390fd5b80915050919050565b7f000000000000000000000000000000000000000000000000000000000000000081565b60008073ffffffffffffffffffffffffffffffffffffffff168273ffffffffffffffffffffffffffffffffffffffff1603610ea3576040517f08c379a0000000000000000000000000000000000000000000000000000000008152600401610e9a90613965565b60405180910390fd5b600360008373ffffffffffffffffffffffffffffffffffffffff1673ffffffffffffffffffffffffffffffffffffffff168152602001908152602001600020549050919050565b60007f00000000000000000000000000000000000000000000000000000000000000003414610f4e576040517f08c379a0000000000000000000000000000000000000000000000000000000008152600401610f45906139d1565b60405180910390fd5b610f586007612175565b6000610f64600761212a565b9050610f70338261218b565b610f7a81856123a8565b610f848184610bca565b8091505092915050565b606060018054610f9d90613515565b80601f0160208091040260200160405190810160405280929190818152602001828054610fc990613515565b80156110165780601f10610feb57610100808354040283529160200191611016565b820191906000526020600020905b815481529060010190602001808311610ff957829003601f168201915b5050505050905090565b60006009600083815260200190815260200160002060030154905060006009600084815260200190815260200160002060010160009054906101000a900473ffffffffffffffffffffffffffffffffffffffff1690508134146110b8576040517f08c379a00000000000000000000000000000000000000000000000000000000081526004016110af906139d1565b60405180910390fd5b336009600085815260200190815260200160002060020160006101000a81548173ffffffffffffffffffffffffffffffffffffffff021916908373ffffffffffffffffffffffffffffffffffffffff16021790555060016009600085815260200190815260200160002060040160006101000a81548160ff021916908315150217905550306009600085815260200190815260200160002060010160006101000a81548173ffffffffffffffffffffffffffffffffffffffff021916908373ffffffffffffffffffffffffffffffffffffffff16021790555061119b6008612175565b6111a6303385611e31565b7f000000000000000000000000000000000000000000000000000000000000000073ffffffffffffffffffffffffffffffffffffffff166108fc7f00000000000000000000000000000000000000000000000000000000000000009081150290604051600060405180830381858888f1935050505015801561122c573d6000803e3d6000fd5b508073ffffffffffffffffffffffffffffffffffffffff166108fc349081150290604051600060405180830381858888f19350505050158015611273573d6000803e3d6000fd5b50505050565b61128b611284611cdb565b8383612415565b5050565b6060600061129d600761212a565b905060006112ab600861212a565b6112b5600761212a565b6112bf91906139f1565b90506000808267ffffffffffffffff8111156112de576112dd61318f565b5b60405190808252806020026020018201604052801561131757816020015b611304612bf0565b8152602001906001900390816112fc5790505b50905060005b848110156114ec573073ffffffffffffffffffffffffffffffffffffffff166009600060018461134d919061372b565b815260200190815260200160002060020160009054906101000a900473ffffffffffffffffffffffffffffffffffffffff1673ffffffffffffffffffffffffffffffffffffffff16036114d95760006001826113a9919061372b565b90506000600960008381526020019081526020016000209050806040518060a0016040529081600082015481526020016001820160009054906101000a900473ffffffffffffffffffffffffffffffffffffffff1673ffffffffffffffffffffffffffffffffffffffff1673ffffffffffffffffffffffffffffffffffffffff1681526020016002820160009054906101000a900473ffffffffffffffffffffffffffffffffffffffff1673ffffffffffffffffffffffffffffffffffffffff1673ffffffffffffffffffffffffffffffffffffffff168152602001600382015481526020016004820160009054906101000a900460ff1615151515815250508486815181106114bc576114bb6137a7565b5b60200260200101819052506001856114d4919061372b565b945050505b80806114e49061375f565b91505061131d565b508094505050505090565b611508611502611cdb565b83611d9c565b611547576040517f08c379a000000000000000000000000000000000000000000000000000000000815260040161153e906136dc565b60405180910390fd5b61155384848484612581565b50505050565b60007f0000000000000000000000000000000000000000000000000000000000000000905090565b606061158c82611c90565b60006006600084815260200190815260200160002080546115ac90613515565b80601f01602080910402602001604051908101604052809291908181526020018280546115d890613515565b80156116255780601f106115fa57610100808354040283529160200191611625565b820191906000526020600020905b81548152906001019060200180831161160857829003601f168201915b5050505050905060006116366125dd565b9050600081510361164b57819250505061168e565b600082511115611680578082604051602001611668929190613a61565b6040516020818303038152906040529250505061168e565b611689846125f4565b925050505b919050565b606060006116a1600761212a565b905060008060005b83811015611749573373ffffffffffffffffffffffffffffffffffffffff16600960006001846116d9919061372b565b815260200190815260200160002060010160009054906101000a900473ffffffffffffffffffffffffffffffffffffffff1673ffffffffffffffffffffffffffffffffffffffff160361173657600183611733919061372b565b92505b80806117419061375f565b9150506116a9565b5060008267ffffffffffffffff8111156117665761176561318f565b5b60405190808252806020026020018201604052801561179f57816020015b61178c612bf0565b8152602001906001900390816117845790505b50905060005b84811015611974573373ffffffffffffffffffffffffffffffffffffffff16600960006001846117d5919061372b565b815260200190815260200160002060010160009054906101000a900473ffffffffffffffffffffffffffffffffffffffff1673ffffffffffffffffffffffffffffffffffffffff1603611961576000600182611831919061372b565b90506000600960008381526020019081526020016000209050806040518060a0016040529081600082015481526020016001820160009054906101000a900473ffffffffffffffffffffffffffffffffffffffff1673ffffffffffffffffffffffffffffffffffffffff1673ffffffffffffffffffffffffffffffffffffffff1681526020016002820160009054906101000a900473ffffffffffffffffffffffffffffffffffffffff1673ffffffffffffffffffffffffffffffffffffffff1673ffffffffffffffffffffffffffffffffffffffff168152602001600382015481526020016004820160009054906101000a900460ff161515151581525050848681518110611944576119436137a7565b5b602002602001018190525060018561195c919061372b565b945050505b808061196c9061375f565b9150506117a5565b508094505050505090565b3373ffffffffffffffffffffffffffffffffffffffff166009600084815260200190815260200160002060020160009054906101000a900473ffffffffffffffffffffffffffffffffffffffff1673ffffffffffffffffffffffffffffffffffffffff1614611a23576040517f08c379a0000000000000000000000000000000000000000000000000000000008152600401611a1a90613af7565b60405180910390fd5b7f00000000000000000000000000000000000000000000000000000000000000003414611a85576040517f08c379a0000000000000000000000000000000000000000000000000000000008152600401611a7c90613b89565b60405180910390fd5b60006009600084815260200190815260200160002060040160006101000a81548160ff021916908315150217905550806009600084815260200190815260200160002060030181905550336009600084815260200190815260200160002060010160006101000a81548173ffffffffffffffffffffffffffffffffffffffff021916908373ffffffffffffffffffffffffffffffffffffffff160217905550306009600084815260200190815260200160002060020160006101000a81548173ffffffffffffffffffffffffffffffffffffffff021916908373ffffffffffffffffffffffffffffffffffffffff160217905550611b83600861265c565b611b8e333084611e31565b5050565b6000600560008473ffffffffffffffffffffffffffffffffffffffff1673ffffffffffffffffffffffffffffffffffffffff16815260200190815260200160002060008373ffffffffffffffffffffffffffffffffffffffff1673ffffffffffffffffffffffffffffffffffffffff16815260200190815260200160002060009054906101000a900460ff16905092915050565b60007f01ffc9a7000000000000000000000000000000000000000000000000000000007bffffffffffffffffffffffffffffffffffffffffffffffffffffffff1916827bffffffffffffffffffffffffffffffffffffffffffffffffffffffff1916149050919050565b611c99816126b8565b611cd8576040517f08c379a0000000000000000000000000000000000000000000000000000000008152600401611ccf906138d3565b60405180910390fd5b50565b600033905090565b816004600083815260200190815260200160002060006101000a81548173ffffffffffffffffffffffffffffffffffffffff021916908373ffffffffffffffffffffffffffffffffffffffff160217905550808273ffffffffffffffffffffffffffffffffffffffff16611d5683610d89565b73ffffffffffffffffffffffffffffffffffffffff167f8c5be1e5ebec7d5bd14f71427d1e84f3dd0314c0f7b2291e5b200ac8c7c3b92560405160405180910390a45050565b600080611da883610d89565b90508073ffffffffffffffffffffffffffffffffffffffff168473ffffffffffffffffffffffffffffffffffffffff161480611dea5750611de98185611b92565b5b80611e2857508373ffffffffffffffffffffffffffffffffffffffff16611e1084610701565b73ffffffffffffffffffffffffffffffffffffffff16145b91505092915050565b8273ffffffffffffffffffffffffffffffffffffffff16611e5182610d89565b73ffffffffffffffffffffffffffffffffffffffff1614611ea7576040517f08c379a0000000000000000000000000000000000000000000000000000000008152600401611e9e90613c1b565b60405180910390fd5b600073ffffffffffffffffffffffffffffffffffffffff168273ffffffffffffffffffffffffffffffffffffffff1603611f16576040517f08c379a0000000000000000000000000000000000000000000000000000000008152600401611f0d90613cad565b60405180910390fd5b611f2383838360016126f9565b8273ffffffffffffffffffffffffffffffffffffffff16611f4382610d89565b73ffffffffffffffffffffffffffffffffffffffff1614611f99576040517f08c379a0000000000000000000000000000000000000000000000000000000008152600401611f9090613c1b565b60405180910390fd5b6004600082815260200190815260200160002060006101000a81549073ffffffffffffffffffffffffffffffffffffffff02191690556001600360008573ffffffffffffffffffffffffffffffffffffffff1673ffffffffffffffffffffffffffffffffffffffff168152602001908152602001600020600082825403925050819055506001600360008473ffffffffffffffffffffffffffffffffffffffff1673ffffffffffffffffffffffffffffffffffffffff16815260200190815260200160002060008282540192505081905550816002600083815260200190815260200160002060006101000a81548173ffffffffffffffffffffffffffffffffffffffff021916908373ffffffffffffffffffffffffffffffffffffffff160217905550808273ffffffffffffffffffffffffffffffffffffffff168473ffffffffffffffffffffffffffffffffffffffff167fddf252ad1be2c89b69c2b068fc378daa952ba7f163c4a11628f55a4df523b3ef60405160405180910390a4612125838383600161281f565b505050565b600081600001549050919050565b60006002600083815260200190815260200160002060009054906101000a900473ffffffffffffffffffffffffffffffffffffffff169050919050565b6001816000016000828254019250508190555050565b600073ffffffffffffffffffffffffffffffffffffffff168273ffffffffffffffffffffffffffffffffffffffff16036121fa576040517f08c379a00000000000000000000000000000000000000000000000000000000081526004016121f190613d19565b60405180910390fd5b612203816126b8565b15612243576040517f08c379a000000000000000000000000000000000000000000000000000000000815260040161223a90613d85565b60405180910390fd5b6122516000838360016126f9565b61225a816126b8565b1561229a576040517f08c379a000000000000000000000000000000000000000000000000000000000815260040161229190613d85565b60405180910390fd5b6001600360008473ffffffffffffffffffffffffffffffffffffffff1673ffffffffffffffffffffffffffffffffffffffff16815260200190815260200160002060008282540192505081905550816002600083815260200190815260200160002060006101000a81548173ffffffffffffffffffffffffffffffffffffffff021916908373ffffffffffffffffffffffffffffffffffffffff160217905550808273ffffffffffffffffffffffffffffffffffffffff16600073ffffffffffffffffffffffffffffffffffffffff167fddf252ad1be2c89b69c2b068fc378daa952ba7f163c4a11628f55a4df523b3ef60405160405180910390a46123a460008383600161281f565b5050565b6123b1826126b8565b6123f0576040517f08c379a00000000000000000000000000000000000000000000000000000000081526004016123e790613e17565b60405180910390fd5b806006600084815260200190815260200160002090816124109190613fe3565b505050565b8173ffffffffffffffffffffffffffffffffffffffff168373ffffffffffffffffffffffffffffffffffffffff1603612483576040517f08c379a000000000000000000000000000000000000000000000000000000000815260040161247a90614101565b60405180910390fd5b80600560008573ffffffffffffffffffffffffffffffffffffffff1673ffffffffffffffffffffffffffffffffffffffff16815260200190815260200160002060008473ffffffffffffffffffffffffffffffffffffffff1673ffffffffffffffffffffffffffffffffffffffff16815260200190815260200160002060006101000a81548160ff0219169083151502179055508173ffffffffffffffffffffffffffffffffffffffff168373ffffffffffffffffffffffffffffffffffffffff167f17307eab39ab6107e8899845ad3d59bd9653f200f220920489ca2b5937696c31836040516125749190612d01565b60405180910390a3505050565b61258c848484611e31565b61259884848484612825565b6125d7576040517f08c379a00000000000000000000000000000000000000000000000000000000081526004016125ce90614193565b60405180910390fd5b50505050565b606060405180602001604052806000815250905090565b60606125ff82611c90565b60006126096125dd565b905060008151116126295760405180602001604052806000815250612654565b80612633846129ac565b604051602001612644929190613a61565b6040516020818303038152906040525b915050919050565b600081600001549050600081116126a8576040517f08c379a000000000000000000000000000000000000000000000000000000000815260040161269f906141ff565b60405180910390fd5b6001810382600001819055505050565b60008073ffffffffffffffffffffffffffffffffffffffff166126da83612138565b73ffffffffffffffffffffffffffffffffffffffff1614159050919050565b600181111561281957600073ffffffffffffffffffffffffffffffffffffffff168473ffffffffffffffffffffffffffffffffffffffff161461278d5780600360008673ffffffffffffffffffffffffffffffffffffffff1673ffffffffffffffffffffffffffffffffffffffff168152602001908152602001600020600082825461278591906139f1565b925050819055505b600073ffffffffffffffffffffffffffffffffffffffff168373ffffffffffffffffffffffffffffffffffffffff16146128185780600360008573ffffffffffffffffffffffffffffffffffffffff1673ffffffffffffffffffffffffffffffffffffffff1681526020019081526020016000206000828254612810919061372b565b925050819055505b5b50505050565b50505050565b60006128468473ffffffffffffffffffffffffffffffffffffffff16612a7a565b1561299f578373ffffffffffffffffffffffffffffffffffffffff1663150b7a0261286f611cdb565b8786866040518563ffffffff1660e01b81526004016128919493929190614274565b6020604051808303816000875af19250505080156128cd57506040513d601f19601f820116820180604052508101906128ca91906142d5565b60015b61294f573d80600081146128fd576040519150601f19603f3d011682016040523d82523d6000602084013e612902565b606091505b506000815103612947576040517f08c379a000000000000000000000000000000000000000000000000000000000815260040161293e90614193565b60405180910390fd5b805181602001fd5b63150b7a0260e01b7bffffffffffffffffffffffffffffffffffffffffffffffffffffffff1916817bffffffffffffffffffffffffffffffffffffffffffffffffffffffff1916149150506129a4565b600190505b949350505050565b6060600060016129bb84612a9d565b01905060008167ffffffffffffffff8111156129da576129d961318f565b5b6040519080825280601f01601f191660200182016040528015612a0c5781602001600182028036833780820191505090505b509050600082602001820190505b600115612a6f578080600190039150507f3031323334353637383961626364656600000000000000000000000000000000600a86061a8153600a8581612a6357612a62614302565b5b04945060008503612a1a575b819350505050919050565b6000808273ffffffffffffffffffffffffffffffffffffffff163b119050919050565b600080600090507a184f03e93ff9f4daa797ed6e38ed64bf6a1f0100000000000000008310612afb577a184f03e93ff9f4daa797ed6e38ed64bf6a1f0100000000000000008381612af157612af0614302565b5b0492506040810190505b6d04ee2d6d415b85acef81000000008310612b38576d04ee2d6d415b85acef81000000008381612b2e57612b2d614302565b5b0492506020810190505b662386f26fc100008310612b6757662386f26fc100008381612b5d57612b5c614302565b5b0492506010810190505b6305f5e1008310612b90576305f5e1008381612b8657612b85614302565b5b0492506008810190505b6127108310612bb5576127108381612bab57612baa614302565b5b0492506004810190505b60648310612bd85760648381612bce57612bcd614302565b5b0492506002810190505b600a8310612be7576001810190505b80915050919050565b6040518060a0016040528060008152602001600073ffffffffffffffffffffffffffffffffffffffff168152602001600073ffffffffffffffffffffffffffffffffffffffff168152602001600081526020016000151581525090565b6000604051905090565b600080fd5b600080fd5b60007fffffffff0000000000000000000000000000000000000000000000000000000082169050919050565b612c9681612c61565b8114612ca157600080fd5b50565b600081359050612cb381612c8d565b92915050565b600060208284031215612ccf57612cce612c57565b5b6000612cdd84828501612ca4565b91505092915050565b60008115159050919050565b612cfb81612ce6565b82525050565b6000602082019050612d166000830184612cf2565b92915050565b600073ffffffffffffffffffffffffffffffffffffffff82169050919050565b6000612d4782612d1c565b9050919050565b612d5781612d3c565b82525050565b6000602082019050612d726000830184612d4e565b92915050565b600081519050919050565b600082825260208201905092915050565b60005b83811015612db2578082015181840152602081019050612d97565b60008484015250505050565b6000601f19601f8301169050919050565b6000612dda82612d78565b612de48185612d83565b9350612df4818560208601612d94565b612dfd81612dbe565b840191505092915050565b60006020820190508181036000830152612e228184612dcf565b905092915050565b6000819050919050565b612e3d81612e2a565b8114612e4857600080fd5b50565b600081359050612e5a81612e34565b92915050565b600060208284031215612e7657612e75612c57565b5b6000612e8484828501612e4b565b91505092915050565b6000612e9882612d1c565b9050919050565b612ea881612e8d565b82525050565b6000602082019050612ec36000830184612e9f565b92915050565b612ed281612e8d565b8114612edd57600080fd5b50565b600081359050612eef81612ec9565b92915050565b60008060408385031215612f0c57612f0b612c57565b5b6000612f1a85828601612ee0565b9250506020612f2b85828601612e4b565b9150509250929050565b600080600060608486031215612f4e57612f4d612c57565b5b6000612f5c86828701612ee0565b9350506020612f6d86828701612ee0565b9250506040612f7e86828701612e4b565b9150509250925092565b600081519050919050565b600082825260208201905092915050565b6000819050602082019050919050565b612fbd81612e2a565b82525050565b612fcc81612d3c565b82525050565b612fdb81612ce6565b82525050565b60a082016000820151612ff76000850182612fb4565b50602082015161300a6020850182612fc3565b50604082015161301d6040850182612fc3565b5060608201516130306060850182612fb4565b5060808201516130436080850182612fd2565b50505050565b60006130558383612fe1565b60a08301905092915050565b6000602082019050919050565b600061307982612f88565b6130838185612f93565b935061308e83612fa4565b8060005b838110156130bf5781516130a68882613049565b97506130b183613061565b925050600181019050613092565b5085935050505092915050565b600060208201905081810360008301526130e6818461306e565b905092915050565b6000806040838503121561310557613104612c57565b5b600061311385828601612e4b565b925050602061312485828601612e4b565b9150509250929050565b61313781612e2a565b82525050565b6000602082019050613152600083018461312e565b92915050565b60006020828403121561316e5761316d612c57565b5b600061317c84828501612ee0565b91505092915050565b600080fd5b600080fd5b7f4e487b7100000000000000000000000000000000000000000000000000000000600052604160045260246000fd5b6131c782612dbe565b810181811067ffffffffffffffff821117156131e6576131e561318f565b5b80604052505050565b60006131f9612c4d565b905061320582826131be565b919050565b600067ffffffffffffffff8211156132255761322461318f565b5b61322e82612dbe565b9050602081019050919050565b82818337600083830152505050565b600061325d6132588461320a565b6131ef565b9050828152602081018484840111156132795761327861318a565b5b61328484828561323b565b509392505050565b600082601f8301126132a1576132a0613185565b5b81356132b184826020860161324a565b91505092915050565b600080604083850312156132d1576132d0612c57565b5b600083013567ffffffffffffffff8111156132ef576132ee612c5c565b5b6132fb8582860161328c565b925050602061330c85828601612e4b565b9150509250929050565b61331f81612ce6565b811461332a57600080fd5b50565b60008135905061333c81613316565b92915050565b6000806040838503121561335957613358612c57565b5b600061336785828601612ee0565b92505060206133788582860161332d565b9150509250929050565b600067ffffffffffffffff82111561339d5761339c61318f565b5b6133a682612dbe565b9050602081019050919050565b60006133c66133c184613382565b6131ef565b9050828152602081018484840111156133e2576133e161318a565b5b6133ed84828561323b565b509392505050565b600082601f83011261340a57613409613185565b5b813561341a8482602086016133b3565b91505092915050565b6000806000806080858703121561343d5761343c612c57565b5b600061344b87828801612ee0565b945050602061345c87828801612ee0565b935050604061346d87828801612e4b565b925050606085013567ffffffffffffffff81111561348e5761348d612c5c565b5b61349a878288016133f5565b91505092959194509250565b600080604083850312156134bd576134bc612c57565b5b60006134cb85828601612ee0565b92505060206134dc85828601612ee0565b9150509250929050565b7f4e487b7100000000000000000000000000000000000000000000000000000000600052602260045260246000fd5b6000600282049050600182168061352d57607f821691505b6020821081036135405761353f6134e6565b5b50919050565b7f4552433732313a20617070726f76616c20746f2063757272656e74206f776e6560008201527f7200000000000000000000000000000000000000000000000000000000000000602082015250565b60006135a2602183612d83565b91506135ad82613546565b604082019050919050565b600060208201905081810360008301526135d181613595565b9050919050565b7f4552433732313a20617070726f76652063616c6c6572206973206e6f7420746f60008201527f6b656e206f776e6572206f7220617070726f76656420666f7220616c6c000000602082015250565b6000613634603d83612d83565b915061363f826135d8565b604082019050919050565b6000602082019050818103600083015261366381613627565b9050919050565b7f4552433732313a2063616c6c6572206973206e6f7420746f6b656e206f776e6560008201527f72206f7220617070726f76656400000000000000000000000000000000000000602082015250565b60006136c6602d83612d83565b91506136d18261366a565b604082019050919050565b600060208201905081810360008301526136f5816136b9565b9050919050565b7f4e487b7100000000000000000000000000000000000000000000000000000000600052601160045260246000fd5b600061373682612e2a565b915061374183612e2a565b9250828201905080821115613759576137586136fc565b5b92915050565b600061376a82612e2a565b91507fffffffffffffffffffffffffffffffffffffffffffffffffffffffffffffffff820361379c5761379b6136fc565b5b600182019050919050565b7f4e487b7100000000000000000000000000000000000000000000000000000000600052603260045260246000fd5b7f5072696365206d7573742062652067726561746572207468616e207a65726f00600082015250565b600061380c601f83612d83565b9150613817826137d6565b602082019050919050565b6000602082019050818103600083015261383b816137ff565b9050919050565b60006080820190506138576000830187612d4e565b6138646020830186612d4e565b613871604083018561312e565b61387e6060830184612cf2565b95945050505050565b7f4552433732313a20696e76616c696420746f6b656e2049440000000000000000600082015250565b60006138bd601883612d83565b91506138c882613887565b602082019050919050565b600060208201905081810360008301526138ec816138b0565b9050919050565b7f4552433732313a2061646472657373207a65726f206973206e6f74206120766160008201527f6c6964206f776e65720000000000000000000000000000000000000000000000602082015250565b600061394f602983612d83565b915061395a826138f3565b604082019050919050565b6000602082019050818103600083015261397e81613942565b9050919050565b7f496e76616c696420616d6f756e74000000000000000000000000000000000000600082015250565b60006139bb600e83612d83565b91506139c682613985565b602082019050919050565b600060208201905081810360008301526139ea816139ae565b9050919050565b60006139fc82612e2a565b9150613a0783612e2a565b9250828203905081811115613a1f57613a1e6136fc565b5b92915050565b600081905092915050565b6000613a3b82612d78565b613a458185613a25565b9350613a55818560208601612d94565b80840191505092915050565b6000613a6d8285613a30565b9150613a798284613a30565b91508190509392505050565b7f4f6e6c79206974656d206f776e65722063616e20706572666f726d207468697360008201527f206f7065726174696f6e00000000000000000000000000000000000000000000602082015250565b6000613ae1602a83612d83565b9150613aec82613a85565b604082019050919050565b60006020820190508181036000830152613b1081613ad4565b9050919050565b7f5072696365206d75737420626520657175616c20746f206c697374696e67207060008201527f7269636500000000000000000000000000000000000000000000000000000000602082015250565b6000613b73602483612d83565b9150613b7e82613b17565b604082019050919050565b60006020820190508181036000830152613ba281613b66565b9050919050565b7f4552433732313a207472616e736665722066726f6d20696e636f72726563742060008201527f6f776e6572000000000000000000000000000000000000000000000000000000602082015250565b6000613c05602583612d83565b9150613c1082613ba9565b604082019050919050565b60006020820190508181036000830152613c3481613bf8565b9050919050565b7f4552433732313a207472616e7366657220746f20746865207a65726f2061646460008201527f7265737300000000000000000000000000000000000000000000000000000000602082015250565b6000613c97602483612d83565b9150613ca282613c3b565b604082019050919050565b60006020820190508181036000830152613cc681613c8a565b9050919050565b7f4552433732313a206d696e7420746f20746865207a65726f2061646472657373600082015250565b6000613d03602083612d83565b9150613d0e82613ccd565b602082019050919050565b60006020820190508181036000830152613d3281613cf6565b9050919050565b7f4552433732313a20746f6b656e20616c7265616479206d696e74656400000000600082015250565b6000613d6f601c83612d83565b9150613d7a82613d39565b602082019050919050565b60006020820190508181036000830152613d9e81613d62565b9050919050565b7f45524337323155524953746f726167653a2055524920736574206f66206e6f6e60008201527f6578697374656e7420746f6b656e000000000000000000000000000000000000602082015250565b6000613e01602e83612d83565b9150613e0c82613da5565b604082019050919050565b60006020820190508181036000830152613e3081613df4565b9050919050565b60008190508160005260206000209050919050565b60006020601f8301049050919050565b600082821b905092915050565b600060088302613e997fffffffffffffffffffffffffffffffffffffffffffffffffffffffffffffffff82613e5c565b613ea38683613e5c565b95508019841693508086168417925050509392505050565b6000819050919050565b6000613ee0613edb613ed684612e2a565b613ebb565b612e2a565b9050919050565b6000819050919050565b613efa83613ec5565b613f0e613f0682613ee7565b848454613e69565b825550505050565b600090565b613f23613f16565b613f2e818484613ef1565b505050565b5b81811015613f5257613f47600082613f1b565b600181019050613f34565b5050565b601f821115613f9757613f6881613e37565b613f7184613e4c565b81016020851015613f80578190505b613f94613f8c85613e4c565b830182613f33565b50505b505050565b600082821c905092915050565b6000613fba60001984600802613f9c565b1980831691505092915050565b6000613fd38383613fa9565b9150826002028217905092915050565b613fec82612d78565b67ffffffffffffffff8111156140055761400461318f565b5b61400f8254613515565b61401a828285613f56565b600060209050601f83116001811461404d576000841561403b578287015190505b6140458582613fc7565b8655506140ad565b601f19841661405b86613e37565b60005b828110156140835784890151825560018201915060208501945060208101905061405e565b868310156140a0578489015161409c601f891682613fa9565b8355505b6001600288020188555050505b505050505050565b7f4552433732313a20617070726f766520746f2063616c6c657200000000000000600082015250565b60006140eb601983612d83565b91506140f6826140b5565b602082019050919050565b6000602082019050818103600083015261411a816140de565b9050919050565b7f4552433732313a207472616e7366657220746f206e6f6e20455243373231526560008201527f63656976657220696d706c656d656e7465720000000000000000000000000000602082015250565b600061417d603283612d83565b915061418882614121565b604082019050919050565b600060208201905081810360008301526141ac81614170565b9050919050565b7f436f756e7465723a2064656372656d656e74206f766572666c6f770000000000600082015250565b60006141e9601b83612d83565b91506141f4826141b3565b602082019050919050565b60006020820190508181036000830152614218816141dc565b9050919050565b600081519050919050565b600082825260208201905092915050565b60006142468261421f565b614250818561422a565b9350614260818560208601612d94565b61426981612dbe565b840191505092915050565b60006080820190506142896000830187612e9f565b6142966020830186612e9f565b6142a3604083018561312e565b81810360608301526142b5818461423b565b905095945050505050565b6000815190506142cf81612c8d565b92915050565b6000602082840312156142eb576142ea612c57565b5b60006142f9848285016142c0565b91505092915050565b7f4e487b7100000000000000000000000000000000000000000000000000000000600052601260045260246000fdfea264697066735822122099aa8ca4fdcbb4cf8e62a379ae722e01cb442d5d65e475ce4fd8191e8749915e64736f6c63430008110033",
  "linkReferences": {},
  "deployedLinkReferences": {}
}